:100000000C945D000C9485000C9485000C94850084
:100010000C9485000C9485000C9485000C9485004C
:100020000C9485000C9485000C9485000C94FF02C0
:100030000C9485000C9485000C9485000C9485002C
:100040000C94B5020C9485000C9485000C948500EA
:100050000C9485000C9485000C9485000C9485000C
:100060000C9485000C94850000000008000201003B
:100070000003040700000000000000000000000072
:10008000250028002B0000000000240027002A0083
:10009000040404040404040402020202020203032E
:1000A0000303030301020408102040800102040836
:1000B0001020010204081020270511241FBECFEFD5
:1000C000D8E0DEBFCDBF11E0A0E0B1E0EAEAFBE09E
:1000D00002C005900D92A230B107D9F721E0A2E04D
:1000E000B1E001C01D92AD33B207E1F710E0CDE5FC
:1000F000D0E004C02197FE010E94CD05CC35D10788
:10010000C9F70E94C0030C94D3050C94000090E042
:10011000FC01EC55FF4F2491FC01E057FF4F849107
:10012000882399F090E0880F991FFC01EA57FF4F50
:10013000A591B491FC01E458FF4F859194918FB73C
:10014000F894EC91E22BEC938FBF08958E3008F079
:100150008E502091000190E4299F90011124877016
:10016000822B80937C0080917A00806480937A0057
:1001700080917A0086FDFCCF8091780020917900F3
:1001800090E0922B089590E0FC01E859FF4F2491F4
:10019000FC01EC55FF4F3491FC01E057FF4FE49117
:1001A000EE2309F43CC0222339F1233091F038F4D6
:1001B0002130A9F0223001F584B58F7D12C027309F
:1001C00091F02830A1F02430B9F4809180008F7D27
:1001D00003C0809180008F77809380000DC084B52C
:1001E0008F7784BD09C08091B0008F7703C0809164
:1001F000B0008F7D8093B000F0E0EE0FFF1FE45859
:10020000FF4FA591B4919FB7F894611104C08C91F0
:100210003095382302C0EC913E2B3C939FBF08954C
:100220003FB7F8948091390190913A01A0913B0138
:10023000B0913C0126B5A89B05C02F3F19F001964F
:10024000A11DB11D3FBFBA2FA92F982F8827820F5C
:10025000911DA11DB11DBC01CD0142E0660F771FAC
:10026000881F991F4A95D1F708958F929F92AF9258
:10027000BF92CF92DF92EF92FF926B017C010E94BE
:1002800010014B015C01C114D104E104F104F1F04F
:100290000E941001DC01CB0188199909AA09BB0948
:1002A000883E9340A105B10570F321E0C21AD10840
:1002B000E108F10888EE880E83E0981EA11CB11CAD
:1002C000C114D104E104F10419F7DDCFFF90EF90E0
:1002D000DF90CF90BF90AF909F908F9008958F92B6
:1002E0009F92AF92BF92CF92DF92EF92FF92FC016A
:1002F000828128E532E06901C81AD10887FDD394CC
:10030000CC0CDD1CCC0CDD1C0D2C000CEE08FF0809
:10031000818128E830E04901881A910887FD93948B
:10032000880C991C880C991C092C000CAA08BB0885
:1003300080818F3FC1F090E0FC01EE0FFF1F8E0F18
:100340009F1FFC01EC5FFE4F2181328143E0220FB1
:10035000331F4A95E1F754E0369527955A95E1F712
:100360002E5F3F4F02C020E030E02F5F3F4FC901BA
:10037000330FAA0BBB0B9C01AD01281939094A099F
:100380005B09A4EBB0E00E947D05A7019601281946
:1003900039094A095B090E945E05C901FF90EF9087
:1003A000DF90CF90BF90AF909F908F900895CF92A5
:1003B000DF92EF92FF92CF93DF93EC01603282E005
:1003C00078070CF03DC077FD06C0653B71052CF049
:1003D00064EB70E002C060E070E0898128E830E002
:1003E0006901C81AD10887FDD394CC0CDD1CCC0C54
:1003F000DD1C0D2C000CEE08FF088A8128E532E098
:10040000281B310987FD3395220F331F220F331F1D
:10041000C901330FAA0BBB0B9C01AD012C193D097F
:100420004E095F09DB010E94880524EB30E040E0C3
:1004300050E00E945E05C20ED31EE41EF51EB601FA
:1004400038813C3080F5298188E890E0821B910951
:1004500027FD9395880F991F880F991F68177907B3
:1004600084F08A8148E552E0481B510987FD539585
:10047000440F551F440F551FCB01461757070CF467
:10048000CA010297880F991F4FB7F894232F30E0C5
:10049000F901EE0FFF1F2E0F3F1FF901EC5FFE4F1A
:1004A000928381834FBFDF91CF91FF90EF90DF90D8
:1004B000CF9008951F93CF93DF93EC01162F88817F
:1004C0008C3008F04DC0862F0E9487008881E82F6D
:1004D000F0E09F01220F331FE20FF31FEC5FFE4F8E
:1004E0001F739081907C192B108319821A826CE003
:1004F0000E94C1059CE0899FB001112440E050E0BA
:100500009B01240F351FF901EE0FFF1F2E0F3F1F18
:10051000F901EC5FFE4F908196FD16C04F5F5F4F73
:100520004C30510569F781110FC01092800082E0B4
:10053000809381001092850010928400B19A80917E
:100540006F00826080936F00E881F0E0CF01880F38
:10055000991FE80FF91FEC5FFE4F80818064808354
:100560008881DF91CF911F9108951F920F920FB64E
:100570000F9211242F933F938F939F93AF93BF9329
:100580008091350190913601A0913701B0913801E9
:100590003091340123E0230F2D3720F40196A11D63
:1005A000B11D05C026E8230F0296A11DB11D2093A1
:1005B00034018093350190933601A0933701B093B5
:1005C00038018091390190913A01A0913B01B0919D
:1005D0003C010196A11DB11D8093390190933A0110
:1005E000A0933B01B0933C01BF91AF919F918F913C
:1005F0003F912F910F900FBE0F901F9018951F9253
:100600000F920FB60F9211242F933F934F935F9346
:100610006F937F938F939F93AF93BF93EF93FF93CA
:100620008091030187FF05C010928500109284001D
:100630001BC020910301022E000C330B809102019C
:1006400090E02817390784F480910301082E000CEC
:10065000990BFC01EE0FFF1F8E0F9F1FFC01EC5F3B
:10066000FE4F808186FD15C0809103018F5F8093CE
:10067000030120910301022E000C330B8091020133
:1006800090E028173907C4F4809103018C3064F19D
:1006900013C080910301082E000C990BFC01EE0F92
:1006A000FF1F8E0F9F1FFC01EC5FFE4F808160E0FB
:1006B0008F730E94C300D8CF8091840090918500F1
:1006C000049680349C4918F480E49CE905C080912C
:1006D000840090918500049690938900809388000F
:1006E0008FEF809303013BC02091840030918500FF
:1006F00080910301082E000C990BFC01EE0FFF1FE7
:100700008E0F9F1FFC01EC5FFE4F81819281820F53
:10071000931F909389008093880080910301082E95
:10072000000C990BFC01EE0FFF1F8E0F9F1FFC01A9
:10073000EC5FFE4F808186FF12C080910301082E7E
:10074000000C990BFC01EE0FFF1F8E0F9F1FFC0189
:10075000EC5FFE4F808161E08F730E94C300FF91C8
:10076000EF91BF91AF919F918F917F916F915F9129
:100770004F913F912F910F900FBE0F901F901895A2
:10078000789484B5826084BD84B5816084BD85B56C
:10079000826085BD85B5816085BD80916E00816078
:1007A00080936E001092810080918100826080931E
:1007B0008100809181008160809381008091800020
:1007C0008160809380008091B10084608093B1004B
:1007D0008091B00081608093B00080917A00846045
:1007E00080937A0080917A00826080937A00809171
:1007F0007A00816080937A0080917A00806880938B
:100800007A001092C1006AE070E081E391E00E94FA
:100810005A0260E070E081E391E00E94D70168E055
:1008200070E08CE291E00E945A0260E070E08CE29D
:1008300091E00E94D70184E00E94870084E10E9439
:10084000870061E084E10E94C30083E0809300019F
:1008500064EF71E080E090E00E943501E4E14E2E0B
:10086000512CF0EA6F2E712C81E391E00E946F0110
:100870007C019093300180932F018CE291E00E94E3
:100880006F016C0190932B0180932A0184E00E94F8
:10089000A6004C0183E00E94A600EC0185E00E94C6
:1008A000A6008C0182E00E94A6005C018EE00E94FE
:1008B000A6001C0190932901809328018FE00E94DB
:1008C000A600833423E0920754F485EA281682E0D8
:1008D00038068CF061E084E00E94C30024C08F37AA
:1008E00093404CF080E5281682E03806E4F460E09E
:1008F00084E00E94C30092E5291691E039069CF439
:1009000068EE73E080E090E00E9435016FE070E0F7
:100910008CE291E00E94D7016FE070E081E391E00A
:100920000E94D70155C0C4018C0F9D1F97FD0196F1
:100930009C0135952795C8018A0D9B1D97FD019651
:1009400095958795281739070CF050C0B6016F5F51
:100950007F4F8CE291E00E94D70121EAC216D104B8
:1009600024F070922B0160922A016AE070E080E02E
:1009700090E00E943501080D191D17FF02C00F5F9E
:100980001F4F15950795CA0DDB1DD7FD2196D595EF
:10099000C795B701C017D1070CF041C06F5F7F4FFB
:1009A00081E391E00E94D70191EAE916F10424F075
:1009B0007092300160922F016AE070E080E090E078
:1009C0000E94350162E370E080E090E00E94350112
:1009D00068EE73E080E090E00E94350180E090E0F6
:1009E000892B09F441CF0E9400003ECFB601821747
:1009F000930784F4615071098CE291E00E94D70161
:100A000084E1C816D1040CF0B0CF50922B01409273
:100A10002A01ABCF8CE291E00E94D701ACCF0C173A
:100A20001D0784F46150710981E391E00E94D701B0
:100A300024E1E216F1040CF0BFCF50923001409255
:100A40002F01BACF81E391E00E94D701BBCF809103
:100A500002018C30A0F491E0980F909302018093F2
:100A6000310190E0FC01EE0FFF1F8E0F9F1FFC0174
:100A7000EC5FFE4F88EB9BE09283818303C08FEF96
:100A800080933101809102018C30A0F491E0980FA5
:100A90009093020180932C0190E0FC01EE0FFF1F68
:100AA0008E0F9F1FFC01EC5FFE4F88EB9BE0928353
:100AB000818308958FEF80932C010895052E97FB75
:100AC0001EF400940E94750557FD07D00E94900502
:100AD00007FC03D04EF40C94750550954095309565
:100AE00021953F4F4F4F5F4F08959095809570959A
:100AF00061957F4F8F4F9F4F08950E94B205A59F2C
:100B0000900DB49F900DA49F800D911D1124089508
:100B1000B7FF0C947D050E947D05821B930B089501
:100B2000A1E21A2EAA1BBB1BFD010DC0AA1FBB1FF1
:100B3000EE1FFF1FA217B307E407F50720F0A21B63
:100B4000B30BE40BF50B661F771F881F991F1A94D0
:100B500069F760957095809590959B01AC01BD01FA
:100B6000CF010895A29FB001B39FC001A39F700D54
:100B7000811D1124911DB29F700D811D1124911DA5
:100B80000895991B79E004C0991F961708F0961BE9
:100B9000881F7A95C9F780950895EE0FFF1F05907D
:0A0BA000F491E02D0994F894FFCFC2
:020BAA00010048
:00000001FF
