:100000000C945D000C9485000C9485000C94850084
:100010000C9485000C9485000C9485000C9485004C
:100020000C9485000C9485000C9485000C943B0284
:100030000C9485000C9485000C9485000C9485002C
:100040000C94F1010C9485000C9485000C948500AF
:100050000C9485000C9485000C9485000C9485000C
:100060000C9485000C94850000000008000201003B
:100070000003040700000000000000000000000072
:10008000250028002B0000000000240027002A0083
:10009000040404040404040402020202020203032E
:1000A0000303030301020408102040800102040836
:1000B00010200102040810200F0411241FBECFEFEE
:1000C000D8E0DEBFCDBF11E0A0E0B1E0E4E4F9E0AC
:1000D00002C005900D92A230B107D9F721E0A2E04D
:1000E000B1E001C01D92AA33B207E1F710E0CDE5FF
:1000F000D0E004C02197FE010E949A04CC35D107BC
:10010000C9F70E94FC020C94A0040C94000090E03B
:10011000FC01EC55FF4F2491FC01E057FF4F849107
:10012000882399F090E0880F991FFC01EA57FF4F50
:10013000A591B491FC01E458FF4F859194918FB73C
:10014000F894EC91E22BEC938FBF0895CF92DF925D
:10015000EF92FF92DC01A03282E0B8070CF03EC0C3
:10016000B7FD06C0A53BB1052CF0A4EBB0E002C082
:10017000A0E0B0E08091380128E830E06901C81AB9
:10018000D10887FDD394CC0CDD1CCC0CDD1C0D2CD0
:10019000000CEE08FF088091390128E532E0281BA9
:1001A000310987FD3395220F331F220F331FA90119
:1001B000330F660B770B9A01AB012C193D094E09E1
:1001C0005F090E94550424EB30E040E050E00E94BB
:1001D0002B04C20ED31EE41EF51ED60190913701EA
:1001E0009C3098F58091380148E850E0481B51094F
:1001F00087FD5395440F551F440F551FA417B5078E
:100200008CF08091390128E532E0281B310987FD07
:100210003395220F331F220F331FAD012A173B07DF
:100220000CF4A90142505109440F551F2FB7F894FF
:10023000892F90E0FC01EE0FFF1F8E0F9F1FFC0126
:10024000ED5EFE4F528341832FBFFF90EF90DF9012
:10025000CF9008958E3008F08E502091000190E4E8
:10026000299F900111248770822B80937C008091BC
:100270007A00806480937A0080917A0086FDFCCFBA
:10028000809178002091790090E0922B089590E081
:10029000FC01E859FF4F2491FC01EC55FF4F3491CC
:1002A000FC01E057FF4FE491EE2309F43CC0222308
:1002B00039F1233091F038F42130A9F0223001F5E2
:1002C00084B58F7D12C0273091F02830A1F0243002
:1002D000B9F4809180008F7D03C0809180008F777A
:1002E000809380000DC084B58F7784BD09C0809154
:1002F000B0008F7703C08091B0008F7D8093B000F5
:10030000F0E0EE0FFF1FE458FF4FA591B4919FB7A7
:10031000F894611104C08C913095382302C0EC919F
:100320003E2B3C939FBF08953FB7F89480910F01F7
:1003300090911001A0911101B091120126B5A89BD6
:1003400005C02F3F19F00196A11DB11D3FBFBA2F67
:10035000A92F982F8827820F911DA11DB11DBC01C7
:10036000CD0142E0660F771F881F991F4A95D1F78C
:1003700008958F929F92AF92BF92CF92DF92EF92A9
:10038000FF920E9494014B015C0188EEC82E83E02D
:10039000D82EE12CF12C0E949401DC01CB018819AC
:1003A0009909AA09BB09883E9340A105B10598F3B4
:1003B00021E0C21AD108E108F10888EE880E83E036
:1003C000981EA11CB11CC114D104E104F10419F759
:1003D000FF90EF90DF90CF90BF90AF909F908F9065
:1003E00008951F920F920FB60F9211242F933F93EF
:1003F0008F939F93AF93BF9380910B0190910C01CA
:10040000A0910D01B0910E0130910A0123E0230F5C
:100410002D3720F40196A11DB11D05C026E8230F3C
:100420000296A11DB11D20930A0180930B019093A8
:100430000C01A0930D01B0930E0180910F019091DA
:100440001001A0911101B09112010196A11DB11DE1
:1004500080930F0190931001A0931101B0931201AA
:10046000BF91AF919F918F913F912F910F900FBEB0
:100470000F901F9018951F920F920FB60F92112494
:100480002F933F934F935F936F937F938F939F939C
:10049000AF93BF93EF93FF938091030187FF05C054
:1004A00010928500109284001BC020910301022E3F
:1004B000000C330B8091020190E02817390784F477
:1004C00080910301082E000C990BFC01EE0FFF1F19
:1004D0008E0F9F1FFC01ED5EFE4F808186FD15C0D3
:1004E000809103018F5F8093030120910301022E0D
:1004F000000C330B8091020190E028173907C4F4F7
:10050000809103018C3064F113C080910301082EA7
:10051000000C990BFC01EE0FFF1F8E0F9F1FFC01BB
:10052000ED5EFE4F808160E08F730E944701D8CF5F
:100530008091840090918500049680349C4918F441
:1005400080E49CE905C08091840090918500049628
:1005500090938900809388008FEF809303013BC0C4
:10056000209184003091850080910301082E000CB9
:10057000990BFC01EE0FFF1F8E0F9F1FFC01ED5E1C
:10058000FE4F81819281820F931F90938900809307
:10059000880080910301082E000C990BFC01EE0FDE
:1005A000FF1F8E0F9F1FFC01ED5EFE4F808186FFB7
:1005B00012C080910301082E000C990BFC01EE0F74
:1005C000FF1F8E0F9F1FFC01ED5EFE4F808161E0DB
:1005D0008F730E944701FF91EF91BF91AF919F915F
:1005E0008F917F916F915F914F913F912F910F90DC
:1005F0000FBE0F901F901895789484B5826084BDCB
:1006000084B5816084BD85B5826085BD85B5816016
:1006100085BD80916E00816080936E001092810094
:10062000809181008260809381008091810081604F
:100630008093810080918000816080938000809110
:10064000B10084608093B1008091B000816080939C
:10065000B00080917A00846080937A0080917A0063
:10066000826080937A0080917A00816080937A0022
:1006700080917A00806880937A001092C10084E0B3
:100680000E94870083E080930001809137018C30C5
:1006900008F050C088E00E94870080913701E82F61
:1006A000F0E09F01220F331FE20FF31FED5EFE4FBC
:1006B0009081907C9860908310923801109239015B
:1006C0006CE00E948E042CE0829FB001112440E077
:1006D00050E09B01240F351FF901EE0FFF1F2E0F75
:1006E0003F1FF901ED5EFE4F908196FD16C04F5FF2
:1006F0005F4F4C30510569F781110FC01092800097
:1007000082E0809381001092850010928400B19A5B
:1007100080916F00826080936F00E0913701F0E07C
:10072000CF01880F991FE80FF91FED5EFE4F808102
:100730008064808300E010E08AE0E82EF12C8EE0F7
:100740000E942A01EC0190930901809308018FE037
:100750000E942A01833443E094074CF4C53A52E0E6
:10076000D5078CF061E084E00E94470149C08F37D3
:1007700093404CF0C03542E0D4070CF041C060E03B
:1007800084E00E944701C235D140D4F50E94B901EE
:100790008FE090E00E94A6001092070110920601DF
:1007A00010920501109204010E94B9018091040188
:1007B00090910501019680312EE0920729F09093E7
:1007C00005018093040115C01092050110920401E7
:1007D000809106019091070101968B3091052CF4D0
:1007E000909307018093060104C0F0920701E09204
:1007F00006010115110509F4A2CF0E9400009FCF48
:10080000809106019091070101962FE0AC01249F91
:10081000C001259F900D11240E94A600C5CF809194
:1008200002018C30A0F491E0980F90930201809324
:10083000370190E0FC01EE0FFF1F8E0F9F1FFC01A0
:10084000ED5EFE4F88EB9BE09283818308958FEFEE
:10085000809337010895052E97FB1EF400940E94A3
:10086000420457FD07D00E945D0407FC03D04EF4FC
:100870000C94420450954095309521953F4F4F4F31
:100880005F4F089590958095709561957F4F8F4F3C
:100890009F4F08950E947F04A59F900DB49F900DD7
:1008A000A49F800D911D11240895B7FF0C944A0454
:1008B0000E944A04821B930B0895A1E21A2EAA1BE0
:1008C000BB1BFD010DC0AA1FBB1FEE1FFF1FA21700
:1008D000B307E407F50720F0A21BB30BE40BF50BFD
:1008E000661F771F881F991F1A9469F76095709586
:1008F000809590959B01AC01BD01CF010895A29F09
:10090000B001B39FC001A39F700D811D1124911DE3
:10091000B29F700D811D1124911D0895991B79E0DE
:1009200004C0991F961708F0961B881F7A95C9F77F
:1009300080950895EE0FFF1F0590F491E02D099426
:04094000F894FFCF59
:020944000100B0
:00000001FF
